:020000040000FA
:100000000C9435000C945D000C945D000C945D0024
:100010000C945D000C945D000C945D000C945D00EC
:100020000C945D000C945D000C945D000C945D00DC
:100030000C945D000C945D000C945D000C945D00CC
:100040000C940C030C945D000C94DA020C94B40232
:100050000C945D000C945D000C945D000C945D00AC
:100060000C945D000C945D00960411241FBECFEF2C
:10007000D8E0DEBFCDBF11E0A0E0B1E0E2E5FEE0F8
:1000800002C005900D92AE35B107D9F722E0AEE57A
:10009000B1E001C01D92A031B207E1F710E0C5E365
:1000A000D0E004C02197FE010E942107C433D1078C
:1000B000C9F70E9456030C9427070C940000AF92D6
:1000C000BF92CF92DF92EF92FF920F931F93CF9345
:1000D000DF936C017B018B01040F151FEB015E01A7
:1000E000AE18BF08C017D10759F06991D601ED913C
:1000F000FC910190F081E02DC6010995892B79F7DB
:10010000C501DF91CF911F910F91FF90EF90DF908C
:10011000CF90BF90AF900895FC01538D448D252F53
:1001200030E0842F90E0821B930B541710F0CF9691
:10013000089501970895FC01918D828D981761F0C3
:10014000A28DAE0FBF2FB11D5D968C91928D9F5FDA
:100150009F73928F90E008958FEF9FEF0895FC01B9
:10016000918D828D981731F0828DE80FF11D858D6C
:1001700090E008958FEF9FEF0895FC01918D228DFF
:10018000892F90E0805C9F4F821B91098F73992784
:10019000089583E791E00E94BD0021E0892B09F4D6
:1001A00020E0822F089580E090E0892B29F00E94C2
:1001B000C90081110C9400000895FC01A48DA80FC2
:1001C000B92FB11DA35ABF4F2C91848D90E0019699
:1001D0008F739927848FA689B7892C93A089B189B9
:1001E0008C91837080648C93938D848D981306C05A
:1001F0000288F389E02D80818F7D80830895EF92BE
:10020000FF920F931F93CF93DF93EC0181E0888FD0
:100210009B8D8C8D98131AC0E889F989808185FFA0
:1002200015C09FB7F894EE89FF896083E889F98942
:1002300080818370806480839FBF81E090E0DF9144
:10024000CF911F910F91FF90EF900895F62E0B8D97
:1002500010E00F5F1F4F0F731127E02E8C8D8E1152
:100260000CC00FB607FCFACFE889F989808185FFB9
:10027000F5CFCE010E94DD00F1CFEB8DEC0FFD2F0D
:10028000F11DE35AFF4FF0829FB7F8940B8FEA8974
:10029000FB8980818062CFCFCF93DF93EC01888D83
:1002A0008823B9F0AA89BB89E889F9898C9185FDF1
:1002B00003C0808186FD0DC00FB607FCF7CF8C917F
:1002C00085FFF2CF808185FFEDCFCE010E94DD005A
:1002D000E9CFDF91CF9108953FB7F8948091630102
:1002E00090916401A0916501B091660126B5A89B2B
:1002F00005C02F3F19F00196A11DB11D3FBFBA2FB8
:10030000A92F982F8827BC01CD01620F711D811D77
:10031000911D42E0660F771F881F991F4A95D1F7FC
:100320000895FC0101900020E9F73197AF01481BC7
:10033000590BBC0183E791E00C945F008F929F9270
:10034000AF92BF920F931F93CF93DF93CDB7DEB7DA
:10035000A1970FB6F894DEBF0FBECDBF19A24230F1
:1003600008F44AE08E010F5D1F4F842E912CB12CB2
:10037000A12CA50194010E94FF06E62FB901CA0134
:10038000EA30F4F4E05DD801EE938D01232B242BA9
:10039000252B79F790E080E0109719F0CD010E94AD
:1003A0009101A1960FB6F894DEBF0FBECDBFDF91CD
:1003B000CF911F910F91BF90AF909F908F90089514
:1003C000E95CE1CF4F925F926F927F928F929F9202
:1003D000AF92BF92CF92DF92EF92FF921F93CF9393
:1003E000DF936B017C01D42FAC019B010E94FA06C4
:1003F0008823D9F082E191E00E949101EC018EE125
:1004000091E00E9491018C0F9D1FDF91CF911F9170
:10041000FF90EF90DF90CF90BF90AF909F908F9024
:100420007F906F905F904F90089546015701E89438
:10043000B7F82FEF3FEF4FE75FE7C501B4010E9428
:10044000FA0681110DC02FEF3FEF4FE75FE7C501BF
:10045000B4010E94300518161CF486E191E0CCCF5F
:100460002FEF3FEF4FE75FE4C701B6010E94880618
:1004700018161CF48AE191E0BFCF2FEF3FEF4FE752
:100480005FECC701B6010E94300587FDF3CF20E085
:1004900030E0A901C701B6010E943005B12CA12CA2
:1004A00087FF0AC06DE283E791E00E94FF005C01D4
:1004B000F7FAF094F7F8F0941D2F60E070E080E018
:1004C0009FE3C0E020E030E040E251E40E943505C7
:1004D000CF5FCD17B8F3A70196010E94C4046B014A
:1004E0007C010E94A7052B013C010E94D6059B01BF
:1004F000AC01C701B6010E94C3046B017C014AE054
:10050000C301B2010E949E01EC016EE283E791E01B
:100510000E94FF00C80FD91FCA0DDB1D115008F43F
:100520006ECF20E030E040E251E4C701B6010E9406
:100530008D064B015C010E94A7056B01F12CE12C9B
:100540004AE0C701B6010E949E01C80FD91FC7012A
:10055000B6010E94D6059B01AC01C501B4010E9401
:10056000C3046B017C01DACF1F920F920FB60F927A
:1005700011242F933F934F935F936F937F938F93A8
:100580009F93AF93BF93EF93FF9383E791E00E9414
:10059000DD00FF91EF91BF91AF919F918F917F917E
:1005A0006F915F914F913F912F910F900FBE0F90E0
:1005B0001F9018951F920F920FB60F9211242F9330
:1005C0008F939F93EF93FF93E0918301F0918401C8
:1005D0008081E0918901F0918A0182FD1BC09081A8
:1005E00080918C018F5F8F7320918D01821741F074
:1005F000E0918C01F0E0ED58FE4F958F80938C01D7
:10060000FF91EF919F918F912F910F900FBE0F90BF
:100610001F9018958081F4CF1F920F920FB60F9202
:1006200011242F933F938F939F93AF93BF93809108
:100630005F0190916001A0916101B09162013091E0
:100640005E0123E0230F2D3758F50196A11DB11D42
:1006500020935E0180935F0190936001A0936101FC
:10066000B09362018091630190916401A091650152
:10067000B09166010196A11DB11D80936301909315
:100680006401A0936501B0936601BF91AF919F9102
:100690008F913F912F910F900FBE0F901F90189543
:1006A00026E8230F0296A11DB11DD2CF789484B500
:1006B000826084BD84B5816084BD85B5826085BD5E
:1006C00085B5816085BD80916E00816080936E00EC
:1006D00010928100809181008260809381008091DE
:1006E000810081608093810080918000816080938F
:1006F00080008091B10084608093B1008091B0004F
:1007000081608093B00080917A00846080937A0049
:1007100080917A00826080937A0080917A00816073
:1007200080937A0080917A00806880937A0010929A
:10073000C100E0918301F091840182E08083E09127
:100740007F01F09180011082E0918101F09182019E
:100750008FEC808310928B01E0918701F0918801EA
:1007600086E08083E0918501F0918601808180613F
:100770008083E0918501F09186018081886080838B
:10078000E0918501F0918601808180688083E0910D
:100790008501F091860180818F7D808381E291E0E7
:1007A0000E9491018EE191E00E94910110E4C0E06D
:1007B000D0E010937C0080917A00806480937A006E
:1007C00080917A0086FDFCCF80917800609179005D
:1007D000762F682F072E000C880B990B0E94D805E6
:1007E00020E030E040EA50E40E948D0620E030E056
:1007F00040E85AE30E948D062DEC3CEC4CE45EE3AD
:100800000E94350560936F017093700180937101B0
:100810009093720181E391E00E94910160916F01D8
:1008200070917001809171019091720142E050E0ED
:100830000E94E2012DEC3CEC4CE45EE360916F0120
:100840007091700180917101909172010E948D06EA
:1008500060936B0170936C0180936D0190936E01B6
:1008600082E491E00E94910160916B0170916C01B2
:1008700080916D0190916E0142E050E00E94E20192
:1008800020E03CE742E157E460916F017091700114
:1008900080917101909172010E943505609367010A
:1008A000709368018093690190936A0183E591E0F8
:1008B0000E949101609167017091680180916901C6
:1008C00090916A0145E050E00E94E2010E946C01B3
:1008D0004B015C0184EFC82EDD24D394E12CF12C74
:1008E0000E946C01681979098A099B09683E734066
:1008F00081059105A8F321E0C21AD108E108F108A9
:1009000088EE880E83E0981EA11CB11CC114D1048E
:10091000E104F10429F7209709F44BCF0E94C900A4
:10092000882309F446CF0E94000043CFE3E7F1E0BB
:100930001382128288EE93E0A0E0B0E08483958376
:10094000A683B78384E091E09183808385EC90E077
:100950009587848784EC90E09787868780EC90E089
:10096000918B808B81EC90E0938B828B82EC90E07A
:10097000958B848B86EC90E0978B868B118E128EF4
:10098000138E148E08955058BB27AA270E94DB04AB
:100990000C944E060E94400638F00E94470620F054
:1009A00039F49F3F19F426F40C943D060EF4E095BB
:1009B000E7FB0C943706E92F0E945F0658F3BA173D
:1009C000620773078407950720F079F4A6F50C9465
:1009D00081060EF4E0950B2EBA2FA02D0B01B90164
:1009E00090010C01CA01A0011124FF27591B99F0A5
:1009F000593F50F4503E68F11A16F040A22F232FB1
:100A0000342F4427585FF3CF469537952795A79500
:100A1000F0405395C9F77EF41F16BA0B620B730BA7
:100A2000840BBAF09150A1F0FF0FBB1F661F771F18
:100A3000881FC2F70EC0BA0F621F731F841F48F4CD
:100A4000879577956795B795F7959E3F08F0B0CF56
:100A50009395880F08F09927EE0F9795879508953D
:100A60000E94130608F481E008950E9449050C9441
:100A70004E060E94470658F00E94400640F029F4B6
:100A80005F3F29F00C94370651110C9482060C94A8
:100A90003D060E945F0668F39923B1F3552391F355
:100AA000951B550BBB27AA2762177307840738F0DD
:100AB0009F5F5F4F220F331F441FAA1FA9F335D03A
:100AC0000E2E3AF0E0E832D091505040E695001CEE
:100AD000CAF72BD0FE2F29D0660F771F881FBB1FA8
:100AE000261737074807AB07B0E809F0BB0B802D86
:100AF000BF01FF2793585F4F3AF09E3F510578F0B2
:100B00000C9437060C9482065F3FE4F3983ED4F3CE
:100B1000869577956795B795F7959F5FC9F7880F85
:100B2000911D9695879597F90895E1E0660F771FD7
:100B3000881FBB1F621773078407BA0720F0621B68
:100B4000730B840BBA0BEE1F88F7E09508950E9493
:100B5000670688F09F5798F0B92F9927B751B0F0E2
:100B6000E1F0660F771F881F991F1AF0BA95C9F731
:100B700014C0B13091F00E948106B1E008950C9448
:100B80008106672F782F8827B85F39F0B93FCCF3FB
:100B9000869577956795B395D9F73EF490958095AE
:100BA000709561957F4F8F4F9F4F0895E89409C0CE
:100BB00097FB3EF490958095709561957F4F8F4F90
:100BC0009F4F9923A9F0F92F96E9BB279395F695A6
:100BD000879577956795B795F111F8CFFAF4BB0F24
:100BE00011F460FF1BC06F5F7F4F8F4F9F4F16C088
:100BF000882311F096E911C0772321F09EE8872F12
:100C0000762F05C0662371F096E8862F70E060E0CD
:100C10002AF09A95660F771F881FDAF7880F969546
:100C2000879597F90895990F0008550FAA0BE0E8EA
:100C3000FEEF16161706E807F907C0F0121613069E
:100C4000E407F50798F0621B730B840B950B39F4DE
:100C50000A2661F0232B242B252B21F408950A2644
:100C600009F4A140A6958FEF811D811D089597F984
:100C70009F6780E870E060E008959FEF80EC089542
:100C800000240A941616170618060906089500246B
:100C90000A9412161306140605060895092E0394E5
:100CA000000C11F4882352F0BB0F40F4BF2B11F459
:100CB00060FF04C06F5F7F4F8F4F9F4F089557FDB8
:100CC0009058440F551F59F05F3F71F04795880FBA
:100CD00097FB991F61F09F3F79F087950895121651
:100CE00013061406551FF2CF4695F1DF08C01616FD
:100CF00017061806991FF1CF8695710561050894AE
:100D00000895E894BB2766277727CB0197F90895C4
:100D10000E94130608F48FEF08950E94A0060C9419
:100D20004E060E94400638F00E94470620F09523A8
:100D300011F00C9437060C943D0611240C94820695
:100D40000E945F0670F3959FC1F3950F50E0551F09
:100D5000629FF001729FBB27F00DB11D639FAA2710
:100D6000F00DB11DAA1F649F6627B00DA11D661F5F
:100D7000829F2227B00DA11D621F739FB00DA11D80
:100D8000621F839FA00D611D221F749F3327A00D3A
:100D9000611D231F849F600D211D822F762F6A2FD6
:100DA00011249F5750409AF0F1F088234AF0EE0F3B
:100DB000FF1FBB1F661F771F881F91505040A9F768
:100DC0009E3F510580F00C9437060C9482065F3FDD
:100DD000E4F3983ED4F3869577956795B795F795A4
:100DE000E7959F5FC1F7FE2B880F911D969587951C
:100DF00097F908950E941306880B990B0895A1E2B4
:100E00001A2EAA1BBB1BFD010DC0AA1FBB1FEE1F84
:100E1000FF1FA217B307E407F50720F0A21BB30BCF
:100E2000E40BF50B661F771F881F991F1A9469F74B
:100E300060957095809590959B01AC01BD01CF01A7
:100E40000895EE0FFF1F0590F491E02D0994F8949A
:100E5000FFCF00000000FF005F008C004C01BD00D0
:100E60009B00AF006E616E00696E66006F76660073
:100E70000D0A00444320566F6C7461676520546509
:100E8000737400496E70757420566F6C7461676579
:100E9000203D20004F757470757420766F6C7461FE
:100EA0006765203D0043757272656E74203D0000D9
:107E0000112484B714BE81FFF0D085E080938100F7
:107E100082E08093C00088E18093C10086E0809377
:107E2000C20080E18093C4008EE0C9D0259A86E02C
:107E300020E33CEF91E0309385002093840096BBD3
:107E4000B09BFECF1D9AA8958150A9F7CC24DD24C4
:107E500088248394B5E0AB2EA1E19A2EF3E0BF2EE7
:107E6000A2D0813461F49FD0082FAFD0023811F036
:107E7000013811F484E001C083E08DD089C08234E0
:107E800011F484E103C0853419F485E0A6D080C0E4
:107E9000853579F488D0E82EFF2485D0082F10E0AE
:107EA000102F00270E291F29000F111F8ED06801E7
:107EB0006FC0863521F484E090D080E0DECF843638
:107EC00009F040C070D06FD0082F6DD080E0C81688
:107ED00080E7D80618F4F601B7BEE895C0E0D1E017
:107EE00062D089930C17E1F7F0E0CF16F0E7DF06D8
:107EF00018F0F601B7BEE89568D007B600FCFDCFD4
:107F0000A601A0E0B1E02C9130E011968C91119780
:107F100090E0982F8827822B932B1296FA010C0160
:107F200087BEE89511244E5F5F4FF1E0A038BF0790
:107F300051F7F601A7BEE89507B600FCFDCF97BE46
:107F4000E89526C08437B1F42ED02DD0F82E2BD052
:107F50003CD0F601EF2C8F010F5F1F4F84911BD097
:107F6000EA94F801C1F70894C11CD11CFA94CF0C13
:107F7000D11C0EC0853739F428D08EE10CD085E9AC
:107F80000AD08FE07ACF813511F488E018D01DD067
:107F900080E101D065CF982F8091C00085FFFCCF94
:107FA0009093C60008958091C00087FFFCCF809118
:107FB000C00084FD01C0A8958091C6000895E0E648
:107FC000F0E098E1908380830895EDDF803219F02E
:107FD00088E0F5DFFFCF84E1DECF1F93182FE3DFCA
:107FE0001150E9F7F2DF1F91089580E0E8DFEE27F6
:047FF000FF270994CA
:027FFE00040479
:00000001FF
