:020000040000FA
:100000000C9463000C948B000C948B000C942E05C4
:100010000C942E050C942E050C948B000C948B00E4
:100020000C948B000C948B000C948B000C948B0024
:100030000C948B000C948B000C948B000C948B0014
:100040000C94E4040C948B000C94B2040C948C0477
:100050000C948B000C948B000C948B000C948B00F4
:100060000C948B000C948B0000000008000201002F
:100070000003040700000000000000000000000072
:1000800023002600290000000000240027002A0089
:1000900000000000250028002B00040404040404D0
:1000A0000404020202020202030303030303010227
:1000B00004081020408001020408102001020408F6
:1000C0001020F205050C11241FBECFEFD8E0DEBFD3
:1000D000CDBF11E0A0E0B1E0EEE8FEE102C0059086
:1000E0000D92AE36B107D9F723E0AEE6B1E001C01C
:1000F0001D92A432B207E1F710E0C2E6D0E004C0DE
:100100002197FE010E94DF0EC136D107C9F70E9478
:10011000A0070C943A0F0C940000AF92BF92CF92BC
:10012000DF92EF92FF920F931F93CF93DF936C01B7
:100130007B018B01040F151FEB015E01AE18BF0898
:10014000C017D10759F06991D601ED91FC9101904A
:10015000F081E02DC6010995892B79F7C501DF9162
:10016000CF911F910F91FF90EF90DF90CF90BF90B4
:10017000AF900895FC01538D448D252F30E0842FDE
:1001800090E0821B930B541710F0CF9608950197BF
:100190000895FC01918D828D981761F0A28DAE0FAC
:1001A000BF2FB11D5D968C91928D9F5F9F73928F33
:1001B00090E008958FEF9FEF0895FC01918D828D5F
:1001C000981731F0828DE80FF11D858D90E008952C
:1001D0008FEF9FEF0895FC01918D228D892F90E084
:1001E000805C9F4F821B91098F73992708958BEB39
:1001F00091E00E94EB0021E0892B09F420E0822F9E
:10020000089580E090E0892B29F00E94F700811189
:100210000C9400000895FC01A48DA80FB92FB11D06
:10022000A35ABF4F2C91848D90E001968F7399272C
:10023000848FA689B7892C93A089B1898C9183700A
:1002400080648C93938D848D981306C00288F38903
:10025000E02D80818F7D80830895EF92FF920F9330
:100260001F93CF93DF93EC0181E0888F9B8D8C8D62
:1002700098131AC0E889F989808185FF15C09FB756
:10028000F894EE89FF896083E889F9898081837019
:10029000806480839FBF81E090E0DF91CF911F91C8
:1002A0000F91FF90EF900895F62E0B8D10E00F5FE9
:1002B0001F4F0F731127E02E8C8D8E110CC00FB6BF
:1002C00007FCFACFE889F989808185FFF5CFCE0157
:1002D0000E940B01F1CFEB8DEC0FFD2FF11DE35AC6
:1002E000FF4FF0829FB7F8940B8FEA89FB898081DA
:1002F0008062CFCFCF93DF93EC01888D8823B9F054
:10030000AA89BB89E889F9898C9185FD03C0808120
:1003100086FD0DC00FB607FCF7CF8C9185FFF2CF9D
:10032000808185FFEDCFCE010E940B01E9CFDF91E7
:10033000CF9108952FB7F8946091B3017091B401F3
:100340008091B5019091B6012FBF08952091B90118
:100350003091BA012817390771F49091B701809153
:10036000B801981741F0E091B701F0E0E259FE4F73
:10037000808190E008958FEF9FEF08950895EF92A8
:10038000FF920F931F93CF93DF93DC015C96ED9068
:10039000FC905D97E114F10479F481E090E013960C
:1003A0009C938E93129790E080E0DF91CF911F9104
:1003B0000F91FF90EF9008955196ED91FC91529717
:1003C00050968C915097982F90950FB75E962C91E0
:1003D0005E97122F127021FD6095F89420811123F1
:1003E00019F1282B2083E7012197F1F728E0462F08
:1003F00050E0308160FF1AC0382B3083E70121972D
:10040000F1F7BA0175956795215089F7112381F0AD
:100410008081892380830FBF5C968D919C91019789
:10042000F1F781E090E0C1CF2923DCCF3923E5CF7C
:100430009081892BEFCF2091B9013091BA01281713
:10044000390771F48091B8012091B70190E0805C88
:100450009F4F821B910960E470E00E94A90E0895ED
:1004600090E080E008952091B9013091BA012817F9
:100470003907B9F49091B7018091B801981789F0C4
:10048000E091B701F0E0E259FE4F80812091B70181
:1004900030E02F5F3F4F2F7333272093B70190E059
:1004A00008958FEF9FEF089590E080E00895CF9337
:1004B000DF93EC018A859B85AC85BD858E839F8308
:1004C000A887B9870E949A016A837B838C839D8366
:1004D00081E089838883DF91CF910895CF93DF9363
:1004E000EC018E819F81A885B9858A839B83AC832B
:1004F000BD830E949A016A877B878C879D8781E0F4
:1005000089838883DF91CF910895FC0101900020B9
:10051000E9F73197AF01481B590BBC018BEB91E018
:100520000C948D008F929F92AF92BF920F931F9366
:10053000CF93DF93CDB7DEB7A1970FB6F894DEBFA8
:100540000FBECDBF19A2423008F44AE08E010F5D04
:100550001F4F842E912CB12CA12CA50194010E9437
:10056000BD0EE62FB901CA01EA30F4F4E05DD8010E
:10057000EE938D01232B242B252B79F790E080E03F
:10058000109719F0CD010E948502A1960FB6F8943C
:10059000DEBF0FBECDBFDF91CF911F910F91BF90F6
:1005A000AF909F908F900895E95CE1CF4F925F925A
:1005B0006F927F928F929F92AF92BF92CF92DF9273
:1005C000EF92FF920F931F93CF936B017C01742ED8
:1005D000AC019B010E94940E882399F084E291E083
:1005E000CF911F910F91FF90EF90DF90CF90BF9030
:1005F000AF909F908F907F906F905F904F900C94F2
:10060000850246015701E894B7F82FEF3FEF4FE717
:100610005FE7C501B4010E94940E81110DC02FEF58
:100620003FEF4FE75FE7C501B4010E94CA0C1816FF
:100630001CF488E291E0D4CF2FEF3FEF4FE75FE467
:10064000C701B6010E94220E18161CF48CE291E03C
:10065000C7CF2FEF3FEF4FE75FECC701B6010E9416
:10066000CA0C87FDF3CF20E030E0A901C701B60135
:100670000E94CA0C10E000E087FF0AC06DE28BEB1D
:1006800091E00E942D018C01F7FAF094F7F8F094B4
:10069000C0E060E070E080E09FE37C1641F020E085
:1006A00030E040E251E40E94CF0CCF5FF6CFA701CB
:1006B00096010E945E0C2B013C010E94410D4B01F2
:1006C0005C014AE00E9492027C01E00EF11ECC2304
:1006D000C1F1C501B4010E94700D9B01AC01C301C1
:1006E000B2010E945D0C4B015C016EE28BEB91E06C
:1006F0000E942D01E80EF91EC15018F120E030E0F3
:1007000040E251E4C501B4010E94270E2B013C01D7
:100710000E94410D4B01B12CA12C4AE0C501B4014E
:100720000E949202E80EF91EC501B4010E94700DEC
:100730009B01AC01C301B2010E945D0C4B015C0145
:10074000DBCFC701CF911F910F91FF90EF90DF900A
:10075000CF90BF90AF909F908F907F906F905F9061
:100760004F9008952F923F924F925F926F927F9297
:100770008F929F92AF92BF92CF92DF92EF92FF92B1
:100780000F931F93CF93DF93D82FC92F8B010E9414
:10079000210C24E630E040E050E00E94BD0E49010B
:1007A0009B01AC0160E876E988E990E00E94990E2F
:1007B0006B017C01F80191828082ED2FFC2F219149
:1007C000822F022E000C990BC0970A97C0F32E328D
:1007D00039F51F0180E8882E86E9982E88E9A82E31
:1007E000B12C9AE0492E512C612C712CF101C19150
:1007F0001F010C2E000CDD0BE097CA30D10580F4F0
:10080000C501B401A30192010E94BD0E49015A0124
:10081000DE010E94F00EC60ED71EE81EF91EE6CFBE
:10082000A5E0B0E0A70196010E94E50E6F5F7F4F43
:100830008F4F9F4F23E030E040E050E00E94BD0E1C
:10084000F80122833383448355831682DF91CF914D
:100850001F910F91FF90EF90DF90CF90BF90AF90DE
:100860009F908F907F906F905F904F903F902F90D0
:1008700008951F93CF93DF93EC0118811D3209F483
:100880002196CE010E94210C9B01AC01A4E6B0E0B0
:100890000E94E50EAB01BC01FE012991822F022EC0
:1008A000000C990BC0970A97B8F32E3231F581816D
:1008B000082E000C990BC0978A309105F0F4AAE03D
:1008C000A89F9001A99F300D1124C901330FAA0BD5
:1008D000BB0B480F591F6A1F7B1F8281082E000C1B
:1008E000990BC0978A30910540F4092E000CAA0B91
:1008F000BB0B480F591F6A1F7B1F1D3239F47095BF
:100900006095509541955F4F6F4F7F4FCB01BA0176
:10091000DF91CF911F9108951F920F920FB60F9202
:1009200011242F933F934F935F936F937F938F93F4
:100930009F93AF93BF93EF93FF938BEB91E00E9454
:100940000B01FF91EF91BF91AF919F918F917F919B
:100950006F915F914F913F912F910F900FBE0F902C
:100960001F9018951F920F920FB60F9211242F937C
:100970008F939F93EF93FF93E091CB01F091CC0184
:100980008081E091D101F091D20182FD1BC0908164
:100990008091D4018F5F8F732091D501821741F030
:1009A000E091D401F0E0E554FE4F958F8093D4019F
:1009B000FF91EF919F918F912F910F900FBE0F900C
:1009C0001F9018958081F4CF1F920F920FB60F924F
:1009D00011242F933F938F939F93AF93BF93809155
:1009E000B3019091B401A091B501B091B6013091DD
:1009F000B20123E0230F2D3758F50196A11DB11D3B
:100A00002093B2018093B3019093B401A093B501F8
:100A1000B093B6018091AE019091AF01A091B00169
:100A2000B091B1010196A11DB11D8093AE019093CB
:100A3000AF01A093B001B093B101BF91AF919F916D
:100A40008F913F912F910F900FBE0F901F9018958F
:100A500026E8230F0296A11DB11DD2CF1F920F923F
:100A60000FB60F9211242F933F934F935F936F9381
:100A70007F938F939F93AF93BF93EF93FF93E091F7
:100A8000B901F091BA01309749F0A685B7858585FF
:100A9000968D91FF14C09C918923A1F4FF91EF9151
:100AA000BF91AF919F918F917F916F915F914F9186
:100AB0003F912F910F900FBE0F901F9018959C9112
:100AC000892361F7A389B4899C91858980958923BD
:100AD0008C93868997890197F1F7608D718DA68532
:100AE000B785558538E020E0CB010197F1F7822FDB
:100AF00090E095958795282F4C91452309F0206823
:100B0000315091F7868D81FD20958091B80190E05C
:100B100001968F7399273091B701381799F0A091FA
:100B2000B801B0E0A259BE4F2C938093B801828DDA
:100B3000938D0197F1F7A389B4898C919589892BBD
:100B40008C93ACCF868D8160868FF1CF90E0FC01D5
:100B5000E859FF4F2491FC01E255FF4F3491FC010D
:100B6000E656FF4FE491EE23C9F0222339F02330FB
:100B700001F1A8F4213019F1223029F1F0E0EE0F53
:100B8000FF1FE057FF4FA591B4918FB7F894EC91F8
:100B9000611126C030953E233C938FBF08952730C6
:100BA000A9F02830C9F0243049F7809180008F7D6A
:100BB00003C0809180008F7780938000DFCF84B561
:100BC0008F7784BDDBCF84B58F7DFBCF8091B00064
:100BD0008F778093B000D2CF8091B0008F7DF9CF16
:100BE0003E2BDACF0F931F93CF93DF931092BE016A
:100BF0001092BD0188EE93E0A0E0B0E08093BF01C9
:100C00009093C001A093C101B093C20124E031E0F0
:100C10003093BC012093BB0125EC30E03093C80138
:100C20002093C70124EC30E03093CA012093C9011E
:100C300020EC30E03093CC012093CB0121EC30E06C
:100C40003093CE012093CD0122EC30E03093D001DF
:100C50002093CF0126EC30E03093D2012093D101D4
:100C60001092D4011092D5011092D6011092D701A2
:100C7000109277021092780210927A021092790202
:100C800010927B0210927C0210927D0210927E02E2
:100C900010927F02109281021092800210928202C2
:100CA00010928302109284021092850210928602A2
:100CB00010928802109287021092890210928A0282
:100CC00010928B0210928C0210928D0210928F0261
:100CD00010928E0210929002109291021092920243
:100CE00010929302109294021092990210929A021A
:100CF00010929B0210929C0210929D0210929E02F2
:100D00001092A7021092A8021092A9021092AA02B1
:100D10001092AB021092AC021092B5021092B60281
:100D20001092BB021092BC021092BD021092BE0241
:100D30001092C3021092C4021092C9021092CA0209
:100D40001092CB021092CC021092D1021092D202D9
:100D50001092D7021092D8021092D9021092DA02A1
:100D60001092DF021092E0021092E5021092E60269
:100D70001092E7021092E8021092ED021092EE0239
:100D80001092F3021092F4021092F5021092F60201
:100D90001092FB021092FC0222E020930C031092AE
:100DA0000D0310920E0310920F0310921103109274
:100DB0001003109213031092120310921403109256
:100DC0001503109216031092170310921803109235
:100DD000190310921A0310921B0310921C03109215
:100DE0001D0310921E0310921F03109220031092F5
:100DF000210310922203109223031092FD021092FD
:100E00005B0210925A0280935C0290935D02A09361
:100E10005E02B0935F0286E191E090935902809365
:100E2000580210926F0210926E021092710210928C
:100E30007002109273021092720210927502109258
:100E40007402609176026E7F6D7F60937602669584
:100E5000617081E068270E94A6054FEA50E0FA0120
:100E600064918BE990E0FC012491222399F030E019
:100E7000220F331FF901EA57FF4FA591B491F901F1
:100E8000E057FF4F259134912FB7F8943C91632B95
:100E90006C932FBFFA01449140936802FC01849146
:100EA000E82FF0E0EE0FFF1FE057FF4F8591949180
:100EB00090936A02809369020EEA10E0F80124918F
:100EC000CAE9D0E0FE0184918823C9F090E0880F40
:100ED000991FFC01EA57FF4FA591B491FC01E0571F
:100EE000FF4F459154913FB7F8949C91822F809584
:100EF00098239C93FA019081892380833FBF80913E
:100F0000760281FD04C061E080E00E94A605109297
:100F10006402F801049100936502FE01C491EC2F74
:100F2000F0E0EE0FFF1FE458FF4F859194919093EE
:100F3000670280936602DF91CF911F910F91089510
:100F4000789484B5826084BD84B5816084BD85B5A4
:100F5000826085BD85B5816085BD80916E008160B0
:100F600080936E0010928100809181008260809356
:100F70008100809181008160809381008091800058
:100F80008160809380008091B10084608093B10083
:100F90008091B00081608093B00080917A0084607D
:100FA00080937A0080917A00826080937A008091A9
:100FB0007A00816080937A0080917A0080688093C3
:100FC0007A001092C100E091CB01F091CC0182E057
:100FD0008083E091C701F091C8011082E091C901BE
:100FE000F091CA018FEC80831092D301E091CF0180
:100FF000F091D00186E08083E091CD01F091CE01A7
:10100000808180618083E091CD01F091CE0180816B
:1010100088608083E091CD01F091CE01808180686D
:101020008083E091CD01F091CE0180818F7D80831E
:10103000109273021092720210927102109270025A
:1010400010926F0210926E028DE991E090937502FA
:101050008093740290916402963108F047C02DEBA2
:1010600030E030936F0220936E022BE931E0309331
:101070007102209370022CE231E0309373022093CE
:1010800072022091680084E0983048F031E09E3090
:1010900008F430E081E001C0880F3A95EAF7822B2E
:1010A000809368002DE630E0983050F02BE630E079
:1010B0009E3030F02CE630E0963110F030E020E049
:1010C00030936C0220936B02292F30E0983008F0A7
:1010D00030C181E001C0880F9A95EAF780936D02D4
:1010E00080917402909175020197F1F780917202DC
:1010F00090917302892B49F1E091B901F091BA0105
:1011000022E0E835F20709F1309739F0A389B48974
:101110009C918589809589238C93809176028E7F1E
:10112000809376021092B8011092B70188E592E0A0
:101130009093BA018093B901E0916B02F0916C0237
:10114000808190916D02892B808380E391E00E94E1
:1011500085028DE391E00E948502FF24F39480E0F4
:10116000682E80E0782E92E0E92E01E088E592E09A
:101170000E941B02181619060CF033C388E592E092
:101180000E943302182F8091140390911503A091AF
:101190001603B09117030196A11DB11D809314038E
:1011A00090931503A0931603B0931703143209F418
:1011B000F7C2E0910E0315320CF0C8C01A3019F0D6
:1011C0001D3009F0FAC2EF3008F03DC1F0E0E35005
:1011D000FD4F10828091FC02882309F4A9C120915F
:1011E000FD02822F022E000C990B3FEB320F36309E
:1011F00008F0B8C0C7978295807F9091FE02292F92
:10120000092E000C330B4FEB490F463008F0B2C0EB
:1012100027533109820F9091FB02891301C18091FC
:10122000200390912103A0912203B0912303019602
:10123000A11DB11D8093200390932103A09322034D
:10124000B093230380910F03882399F080911803B2
:1012500090911903A0911A03B0911B030196A11D4F
:10126000B11D8093180390931903A0931A03B093B0
:101270001B03C0910C03CC2309F485C0C130A1F538
:1012800089E992E00E946E0287EA92E00E946E0273
:1012900080910F03882341F187E0E7E8F2E0A9E7B6
:1012A000B2E001900D928A95E1F787E0EEE8F2E076
:1012B000A0E8B2E001900D928A95E1F70E949A01B0
:1012C0006093950270939602809397029093980290
:1012D000C0937802C093770285EB92E00E94570298
:1012E00083EC92E00E945702C0911203D091130345
:1012F000209709F4A8C0E0911203F091130366A1AE
:1013000077A18EA19FA10E941B0F892B09F09BC082
:10131000BE01CE0140960E94240F0E949A0168A34C
:1013200079A38AA39BA3FDA2FCA20AA4DBA5C02DDE
:10133000DFCF9E3040F42850310981E001C0880F92
:101340002A95EAF7CBCE2E503109F7CF1A3209F49D
:101350003ACF1C3209F031C28091FB028127809381
:10136000FB0231CF2156263018F48755910943CF1F
:10137000C09741CF9156963018F4275531094ACF7E
:101380002053310947CF87EA92E00E946E02809194
:101390000F03882321F187E0E7E8F2E0A9E7B2E054
:1013A00001900D928A95E1F787E0EEE8F2E0A0E87F
:1013B000B2E001900D928A95E1F70E949A01609344
:1013C00095027093960280939702909398020093EF
:1013D00078020093770281ED92E00E94570280919B
:1013E000E9029091EA02A091EB02B091EC028093A5
:1013F000E5029093E602A093E702B093E8020E9410
:101400009A016093E1027093E2028093E302909369
:10141000E4020093E0020093DF028DEE92E062CFDF
:1014200080911C0390911D03A0911E03B0911F0396
:101430000196A11DB11D80931C0390931D03A093E1
:101440001E03B0931F0380910D038F5F80930D03E4
:1014500010920E0381E01A3209F080E08093FC02C2
:1014600080917802882309F481CE88E591E00E947A
:1014700085021092780260917B0270917C028091CB
:101480007D0290917E020E94700D28E23BE64EE6BE
:101490005EE40E94CF0C4B015C0160917902709177
:1014A0007A0290E080E00E94700D9B01AC01C501C2
:1014B000B4010E945E0C20917F022111905842E0FD
:1014C0000E94D6028DE391E00E94850282E691E0BF
:1014D0000E948502109278026091820270918302CC
:1014E00080918402909185020E94700D28E23BE673
:1014F0004EE65EE40E94CF0C4B015C0160918002DD
:101500007091810290E080E00E94700D9B01AC011F
:10151000C501B4010E945E0C2091860221119058F1
:1015200042E00E94D6028DE391E00E9485021ECE29
:1015300090910D03911145C060E471E08DEF92E050
:101540000E941B0F892B41F066E471E08DEF92E061
:101550000E941B0F892BF9F400930C038091100358
:10156000909111039093130380931203C090120380
:10157000D0901303C114D10409F465CF6DEF72E06C
:10158000F60186A197A10E941B0F97FF36C1F601B5
:1015900082A593A5E7CF6CE471E08DEF92E00E9405
:1015A0001B0F892B41F062E571E08DEF92E00E9404
:1015B0001B0F892B19F410920C03D0CFE0920C036F
:1015C000CDCFE0910C03E23009F448C08091FD02D8
:1015D000882309F443C020E2E29FF0011124E92BA3
:1015E0003197E932F10508F039C0E750F54F0C9416
:1015F000DF0E220B630B6A0B710B740BA20BA90B92
:10160000B60BC30B2E0B2E0B2E0B2E0B2E0B2E0BF5
:101610002E0B2E0B2E0B2E0B2E0B2E0B2E0B2E0B02
:101620002E0B2E0B2E0B2E0B2E0B2E0B2E0B2E0BF2
:101630002E0B220B5D0B630B6A0B710B740B7B0B78
:10164000880B950B8DEF92E00E9439046093AD02F8
:101650007093AE028093AF029093B002C0901203D9
:10166000D0901303B0900D03C114D10409F4EBCE54
:10167000E0911203F091130366A177A1F60186A110
:1016800097A10E941B0F892B09F0DDCEF60120A542
:1016900031A58B2D90E0821793070CF4D4CE281738
:1016A000390739F440E150E06DEF72E0C6010E9465
:1016B0002B0FF601C2A4D3A4D5CF91E0813409F455
:1016C00045C090E043C067E872E08DEF92E00E9471
:1016D000B203C4CF91E0833509F090E090938D027E
:1016E000BDCF6EE872E0F1CF91E0873509F090E070
:1016F00090939402B3CF8DEF92E00E9439046093EF
:10170000BF027093C0028093C1029093C202A6CF21
:101710008DEF92E00E9439046093CD027093CE0267
:101720008093CF029093D00299CF8DEF92E00E94E8
:10173000210C60939F027093A0028093A10290936A
:10174000A2028CCF91E081330CF4BBCF90930F03B6
:1017500085CF8DEF92E00E94210C6093E902709397
:10176000EA028093EB029093EC0278CF8DEF92E047
:101770000E9439046093F7027093F8028093F90293
:101780009093FA026BCF8DEF92E00E943904609340
:10179000DB027093DC028093DD029093DE025ECF69
:1017A00010920E0310920D031092FB02E0920C03B4
:1017B0001092FC0210920F0353CEEE3040F481E001
:1017C0008E0F80930E03F0E0E350FD4F1083809165
:1017D000FC02811145CE8091FB0218271093FB0279
:1017E0003FCE6114710409F4C1CC0E94F700882334
:1017F00009F4BCCC0E940000B9CC892B09F423CE9B
:1018000010921303109212031ECE86E191E0909382
:101810005902809358028091B9019091BA0188557C
:10182000924071F4E0916B02F0916C029081809192
:101830006D028095892380831092BA011092B901BC
:1018400008951F93FC0199278827BC01E894119102
:101850001032E9F3193010F01E30C8F31B3251F08A
:101860001D3249F4689406C00E94480C610F711D36
:10187000811D911D119110531A30B0F33EF49095D3
:101880008095709561957F4F8F4F9F4F1F91089561
:10189000592F482F372F262F660F771F881F991F24
:1018A000660F771F881F991F620F731F841F951F74
:1018B000660F771F881F991F08955058BB27AA27C6
:1018C0000E94750C0C94E80D0E94DA0D38F00E940D
:1018D000E10D20F039F49F3F19F426F40C94D70D54
:1018E0000EF4E095E7FB0C94D10DE92F0E94F90D61
:1018F00058F3BA17620773078407950720F079F445
:10190000A6F50C941B0E0EF4E0950B2EBA2FA02D0D
:101910000B01B90190010C01CA01A0011124FF279C
:10192000591B99F0593F50F4503E68F11A16F04097
:10193000A22F232F342F4427585FF3CF4695379596
:101940002795A795F0405395C9F77EF41F16BA0B5B
:10195000620B730B840BBAF09150A1F0FF0FBB1F09
:10196000661F771F881FC2F70EC0BA0F621F731F52
:10197000841F48F4879577956795B795F7959E3FAF
:1019800008F0B0CF9395880F08F09927EE0F979540
:10199000879508950E94AD0D08F481E008950E9496
:1019A000E30C0C94E80D0E94E10D58F00E94DA0D52
:1019B00040F029F45F3F29F00C94D10D51110C94A3
:1019C0001C0E0C94D70D0E94F90D68F39923B1F306
:1019D000552391F3951B550BBB27AA276217730755
:1019E000840738F09F5F5F4F220F331F441FAA1FE9
:1019F000A9F335D00E2E3AF0E0E832D091505040A5
:101A0000E695001CCAF72BD0FE2F29D0660F771F52
:101A1000881FBB1F261737074807AB07B0E809F038
:101A2000BB0B802DBF01FF2793585F4F3AF09E3FBD
:101A3000510578F00C94D10D0C941C0E5F3FE4F32B
:101A4000983ED4F3869577956795B795F7959F5F00
:101A5000C9F7880F911D9695879597F90895E1E04C
:101A6000660F771F881FBB1F621773078407BA07AB
:101A700020F0621B730B840BBA0BEE1F88F7E09506
:101A800008950E94010E88F09F5798F0B92F99276A
:101A9000B751B0F0E1F0660F771F881F991F1AF059
:101AA000BA95C9F714C0B13091F00E941B0EB1E095
:101AB00008950C941B0E672F782F8827B85F39F094
:101AC000B93FCCF3869577956795B395D9F73EF4F2
:101AD00090958095709561957F4F8F4F9F4F08959A
:101AE000E89409C097FB3EF49095809570956195B8
:101AF0007F4F8F4F9F4F9923A9F0F92F96E9BB276E
:101B00009395F695879577956795B795F111F8CFE9
:101B1000FAF4BB0F11F460FF1BC06F5F7F4F8F4F54
:101B20009F4F16C0882311F096E911C0772321F04A
:101B30009EE8872F762F05C0662371F096E8862FE2
:101B400070E060E02AF09A95660F771F881FDAF739
:101B5000880F9695879597F90895990F0008550F66
:101B6000AA0BE0E8FEEF16161706E807F907C0F023
:101B700012161306E407F50798F0621B730B840B2B
:101B8000950B39F40A2661F0232B242B252B21F405
:101B900008950A2609F4A140A6958FEF811D811DA5
:101BA000089597F99F6780E870E060E008959FEFDF
:101BB00080EC089500240A941616170618060906E4
:101BC000089500240A9412161306140605060895B3
:101BD000092E0394000C11F4882352F0BB0F40F43B
:101BE000BF2B11F460FF04C06F5F7F4F8F4F9F4F7B
:101BF000089557FD9058440F551F59F05F3F71F0FD
:101C00004795880F97FB991F61F09F3F79F0879563
:101C10000895121613061406551FF2CF4695F1DFEC
:101C200008C0161617061806991FF1CF869571057C
:101C3000610508940895E894BB2766277727CB01B0
:101C400097F908950E94AD0D08F48FEF08950E9452
:101C50003A0E0C94E80D0E94DA0D38F00E94E10D66
:101C600020F0952311F00C94D10D0C94D70D112474
:101C70000C941C0E0E94F90D70F3959FC1F3950F03
:101C800050E0551F629FF001729FBB27F00DB11D00
:101C9000639FAA27F00DB11DAA1F649F6627B00D90
:101CA000A11D661F829F2227B00DA11D621F739F79
:101CB000B00DA11D621F839FA00D611D221F749F87
:101CC0003327A00D611D231F849F600D211D822FCE
:101CD000762F6A2F11249F5750409AF0F1F08823F5
:101CE0004AF0EE0FFF1FBB1F661F771F881F915022
:101CF0005040A9F79E3F510580F00C94D10D0C94F3
:101D00001C0E5F3FE4F3983ED4F386957795679574
:101D1000B795F795E7959F5FC1F7FE2B880F911D4B
:101D20009695879597F908950E94AD0D880B990BAC
:101D30000895DB018F939F930E94E50EBF91AF91B1
:101D4000A29F800D911DA39F900DB29F900D112415
:101D5000089597FB072E16F4009407D077FD09D05D
:101D60000E94F80E07FC05D03EF4909581959F4F98
:101D70000895709561957F4F0895A1E21A2EAA1BD0
:101D8000BB1BFD010DC0AA1FBB1FEE1FFF1FA2172B
:101D9000B307E407F50720F0A21BB30BE40BF50B28
:101DA000661F771F881F991F1A9469F760957095B1
:101DB000809590959B01AC01BD01CF010895EE0F78
:101DC000FF1F0590F491E02D09940E940C0FA59F30
:101DD000900DB49F900DA49F800D911D1124089526
:101DE000B7FF0C94E50E0E94E50E821B930B08953D
:101DF000AA1BBB1B51E107C0AA1FBB1FA617B70731
:101E000010F0A61BB70B881F991F5A95A9F780954C
:101E10009095BC01CD010895A29FB001B39FC00170
:101E2000A39F700D811D1124911DB29F700D811D06
:101E30001124911D0895FB01DC018D910190801901
:101E40000110D9F3990B0895FB01DC0101900D926B
:101E50000020E1F70895FB01DC014150504048F0BB
:101E600001900D920020C9F701C01D9241505040D1
:101E7000E0F7089510E0C2E6D0E004C0FE010E9441
:101E8000DF0E2196C336D107C9F7F894FFCF0000C3
:101E900000002D018D00BA007A01EB00C900DD00C1
:101EA00000000000BF018D005402BE011B0233027E
:101EB000A6016E616E00696E66006F7666006265EF
:101EC00067696E20736372697074000D0A00475071
:101ED000524D4300474E524D430047504747410043
:101EE000474E474741004C617469747564653A0018
:0C1EF0004C6F6E6769747564653A000001
:107E0000112484B714BE81FFF0D085E080938100F7
:107E100082E08093C00088E18093C10086E0809377
:107E2000C20080E18093C4008EE0C9D0259A86E02C
:107E300020E33CEF91E0309385002093840096BBD3
:107E4000B09BFECF1D9AA8958150A9F7CC24DD24C4
:107E500088248394B5E0AB2EA1E19A2EF3E0BF2EE7
:107E6000A2D0813461F49FD0082FAFD0023811F036
:107E7000013811F484E001C083E08DD089C08234E0
:107E800011F484E103C0853419F485E0A6D080C0E4
:107E9000853579F488D0E82EFF2485D0082F10E0AE
:107EA000102F00270E291F29000F111F8ED06801E7
:107EB0006FC0863521F484E090D080E0DECF843638
:107EC00009F040C070D06FD0082F6DD080E0C81688
:107ED00080E7D80618F4F601B7BEE895C0E0D1E017
:107EE00062D089930C17E1F7F0E0CF16F0E7DF06D8
:107EF00018F0F601B7BEE89568D007B600FCFDCFD4
:107F0000A601A0E0B1E02C9130E011968C91119780
:107F100090E0982F8827822B932B1296FA010C0160
:107F200087BEE89511244E5F5F4FF1E0A038BF0790
:107F300051F7F601A7BEE89507B600FCFDCF97BE46
:107F4000E89526C08437B1F42ED02DD0F82E2BD052
:107F50003CD0F601EF2C8F010F5F1F4F84911BD097
:107F6000EA94F801C1F70894C11CD11CFA94CF0C13
:107F7000D11C0EC0853739F428D08EE10CD085E9AC
:107F80000AD08FE07ACF813511F488E018D01DD067
:107F900080E101D065CF982F8091C00085FFFCCF94
:107FA0009093C60008958091C00087FFFCCF809118
:107FB000C00084FD01C0A8958091C6000895E0E648
:107FC000F0E098E1908380830895EDDF803219F02E
:107FD00088E0F5DFFFCF84E1DECF1F93182FE3DFCA
:107FE0001150E9F7F2DF1F91089580E0E8DFEE27F6
:047FF000FF270994CA
:027FFE00040479
:00000001FF
